:020000040800F2
:1000000030180020B50D0008A9020008AB02000856
:10001000AF020008B3020008B702000800000000A9
:100020000000000000000000000000004501000882
:10003000BB0200080000000089010008050B000851
:10004000CF0D0008CF0D0008CF0D0008CF0D000820
:10005000CF0D0008CF0D0008CF0D0008CF0D000810
:10006000CF0D0008CF0D0008CF0D0008CF0D000800
:10007000CF0D0008CF0D0008CF0D0008CF0D0008F0
:10008000CF0D0008CF0D0008CF0D0008CF0D0008E0
:10009000CF0D0008CF0D0008CF0D0008CF0D0008D0
:1000A000CF0D0008CF0D0008CF0D0008CF0D0008C0
:1000B000CF0D00080F060008CF0D0008CF0D000877
:1000C000CF0D0008CF0D0008CF0D0008CF0D0008A0
:1000D000CF0D0008790C0008CF0D0008CF0D0008E7
:1000E000CF0D0008CF0D0008CF0D0008CF0D000880
:1000F000CF0D0008CF0D0008CF0D0008CF0D000870
:10010000CF0D0008CF0D0008CF0D0008CF0D00085F
:10011000CF0D0008CF0D0008CF0D0008CF0D00084F
:10012000CF0D0008CF0D0008CF0D0008CF0D00083F
:10013000DFF80CD006F056FD00480047DD0100084E
:1001400030180020224B19680868B0E8F00F80F3DF
:100150000988BFF36F8F4FF0000080F311884EF0D5
:100160000D0E70470000000006480068006880F32C
:10017000088862B661B6BFF34F8FBFF36F8F00DFA1
:1001800000BF00BF08ED00E0EFF30980BFF36F8F01
:100190000F4B1A6820E9F00F106008B54FF05000BF
:1001A00080F31188BFF34F8FBFF36F8F04F017FAFE
:1001B0004FF0000080F31188BDE808401968086816
:1001C000B0E8F00F80F30988BFF36F8F704700BF6E
:1001D00050000020EFF30580704700001CB54FF47D
:1001E000A06001F07DFB00F095FC4FF4165000F08C
:1001F000F7FC00F019FA00F051F91AA11C4800F0C0
:10020000AAFD00F067FA1BA006F08CFD4FF47A708F
:1002100000F0C6FC25E03321AC2000F095FA642004
:1002200000F0BEFC1749712000F03DFB154A16494D
:10023000164800F02FFC1448006806F08AFA0446BD
:100240000D461248006806F084FA064632460B4610
:100250000FA0CDE9004506F065FD4FF4FA6000F00F
:100260009FFCD8E7506F7765724F6E210000000049
:1002700000380140CFB5CDB3C6F4B6AF2E2E2E0A4E
:100280000000000004000020100000200C000020EE
:10029000CAAAB6C8CEAA25352E32662CCEC2B6C89A
:1002A000CEAA25352E326600704700BFFEE700BF9C
:1002B000FEE700BFFEE700BFFEE770470CB5002079
:1002C000019000906C48006840F480306A490860F2
:1002D00000BF6948006800F4003000900198401C9D
:1002E0000190009818B90198B0F5A06FF1D162485B
:1002F000006800F4003010B10120009001E00020FF
:1003000000900098012843D15C48006840F010003C
:100310005A4908600846006820F003000860084653
:10032000006840F002000860534840685249486045
:100330000846406848600846406840F4806048606D
:100340000846406820F47C1048600846406840F445
:10035000E81048600846006840F08070086000BF00
:100360004548006800F000700028F9D04248406815
:1003700020F00300404948600846406840F0020011
:10038000486000BF3C48406800F00C000828F9D1E4
:100390000CBD10B5FFF792FF10BD10B536480068D0
:1003A00040F001003449086008464068344908407C
:1003B0003149486008460068324908402E490860C3
:1003C0000846006820F4802008600846406820F451
:1003D000FE0048604FF41F008860FFF7DAFF4FF01F
:1003E00000602949086010BD10B5002100200022DE
:1003F000214B5B6803F00C0121B1042906D00829C8
:1004000028D107E0214B224C236027E01F4B204CD2
:10041000236023E0184B5B6803F47010164B5B6895
:1004200003F48032022303EB904022B9194B43437B
:10043000174C23600DE0104B5B6803F4003323B1CD
:10044000144B4343124C236003E0104B4343104CC6
:10045000236003E00D4B0E4C236000BF00BF064B32
:100460005B68C3F303130C4CE15C094B1B68CB4086
:10047000074C236010BD0000001002400020024025
:100480000000FFF8FFFFF6FE08ED00E000127A0022
:100490001400002000093D001800002008B50121CB
:1004A000142000F0B5FF01213E4800F0C6FD4FF4D6
:1004B0000040ADF8000048208DF8030069463A4836
:1004C00000F0EAFC2020ADF8000048208DF8030081
:1004D0006946364800F0E0FC0120ADF80000282015
:1004E0008DF803006946304800F0D6FC08BD10B511
:1004F000044614B101202E4908702D480078A8B395
:1005000020212A4800F05BFD08B9012000E000200E
:1005100058B14FF40041244800F051FD28B10121A9
:10052000214800F04CFD012821D10A2000F038FBC1
:1005300000201F49087020211C4800F040FD08B928
:10054000012000E0002008B9012010BD4FF4004157
:10055000154800F034FD08B90220F6E701211248E1
:1005600000F02DFD01281AD10320EEE7FFE720213E
:100570000E4800F024FD08B9012000E00020012809
:100580000DD1C103084800F01AFD012807D101214F
:10059000054800F014FD10B901200549087000203D
:1005A000D3E70000000230000008014000100140C5
:1005B000280000207FB505460C460121022000F0EE
:1005C00034FFADF80850ADF804400020ADF80A0043
:1005D000ADF8060001A9134801F0C4FA0122114642
:1005E000104801F036FE1D208DF8000000208DF827
:1005F000010003208DF8020001208DF803006846F9
:1006000001F073F90121074801F008FE7FBD10B524
:100610000121044802F0CBF818B10121014802F091
:10062000D7F810BD0004004000B589B00121C80210
:1006300000F0EEFE0121042000F0EAFE18208DF803
:1006400023004FF48070ADF8200003208DF82200C5
:1006500008A91E4800F020FC1D4801F013FE0020F0
:10066000ADF81A00ADF816006320ADF8180040F29E
:10067000CF20ADF8140000208DF81C0005A9144807
:1006800001F070FA01A801F0A2FD6020ADF80400AD
:100690000220ADF80C000120ADF806000020ADF8F6
:1006A0000A0001A90A4801F09AFA0121084801F05C
:1006B000C1FD0121064801F0B1FD09B000BD10B532
:1006C00004462146024802F041F810BD00080140EE
:1006D000002C014000B585B00121480500F0A5FEC1
:1006E0000121082000F094FEC020ADF810001C206D
:1006F0008DF8130003208DF8120004A90F4800F0B4
:10070000CBFB0020ADF804000D4800904BF6FF70C5
:10071000ADF806004FF48060ADF80A000001ADF8B6
:100720000C006620ADF808006946064802F06DF836
:100730000121044802F0E7F805B000BD000C0140BB
:10074000400D03000054004070B504460D460121E1
:10075000A14802F0FCF800BFA0499F4802F0D8F978
:100760000128F9D170219C4802F041F900BF9C4951
:10077000994802F0CDF90128F9D12146964802F0B6
:1007800036F900BF9649891E934802F0C1F9012845
:10079000F8D12946904802F02AF900BF9049891EF5
:1007A0008D4802F0B5F90128F8D100218A4802F0FD
:1007B0001EF900BF8A49891C874802F0A9F901285F
:1007C000F8D10121844802F0CEF8642000F0E8F965
:1007D00070BD70B50446002501217F4802F0B7F8CE
:1007E00002E080A006F09EFA7C497B4802F090F976
:1007F0000128F6D100223821774802F0FEF802E005
:1008000081A006F08FFA7649734802F081F9012839
:10081000F6D12146704802F0EAF802E082A006F024
:1008200081FA6F49891C6C4802F072F90128F5D1F0
:100830000121694802F08BF802E06AA006F072FA22
:100840006649654802F064F90128F6D10122382191
:10085000614802F0D2F802E06BA006F063FA5F494B
:10086000491C5D4802F054F90128F5D100215A488D
:1008700002F085F80121584802F075F802E073A0F3
:1008800006F050FA55493F31534802F041F901282A
:10089000F5D1514802F0ADF8054601214E4802F06D
:1008A0006EF8284670BD70B506460C4601214A48D0
:1008B00002F04DF800BF4949474802F029F90128E4
:1008C000F9D13146444802F092F800BF4349491C2F
:1008D000414802F01DF90128F8D1002514E000215B
:1008E0003D4802F04CF83C4802F083F86055012185
:1008F000394802F044F800BF38493F31364802F029
:1009000007F90128F8D16D1C052DE8DB00213248DC
:1009100002F035F8304802F06CF8607101212E4881
:1009200002F021F870BD1CB5642000F039F9694669
:100930007120FFF7B8FF9DF8004021464AA006F05D
:10094000F1F904F01800182843D04CA006F0EAF999
:100950000121214801F0FBFF00BF20491E4802F0A1
:10096000D7F80128F9D170211B4802F040F800BFE8
:100970001B49194802F0CCF80128F9D1BE211648CC
:1009800002F035F800BF1649891E134802F0C0F87E
:100990000128F8D10821104802F029F800BF1049B9
:1009A000891E0D4802F0B4F80128F8D100210A4848
:1009B00002F01DF800BF0A49891C074802F0A8F898
:1009C0000128F8D10121044801F0CDFF0A2000F0F0
:1009D000E7F801201CBD00000054004001000300A6
:1009E0008200070052B5C8B4FDD6F7BBFAC4A3CA4B
:1009F000BDD1A1D4F1CDEAB3C9455635CAC2BCFEBA
:100A0000A1ADA1AD00000000B5C8B4FDB4D3BBFAE0
:100A1000BBD8D3A641434BA3AC455636CAC2BCFE95
:100A2000A1ADA1AD0000000052B5C8B4FDCAFDBE25
:100A3000DDB7A2CBCDCDEAB1CFA3AC4556385F32FE
:100A4000CAC2BCFEA1ADA1AD0000000052BDD3CA18
:100A5000D5D2BBB8F6D7D6BDDAA3AC455637CAC295
:100A6000BCFEA1ADA1AD0000B3F5CABCD7B4CCACFF
:100A70003A203078253032580A000000B4ABB8D0A4
:100A8000C6F7D0E8D2AAB3F5CABCBBAF2E2E2E0A49
:100A9000000000002DE9F04705460E461446607838
:100AA0000003A17800EB0110E17800EB1117384644
:100AB00005F04AFE81464FF0934105F007FE80465F
:100AC0000D4905F0D1FD28606079217900EB012006
:100AD000E17801F00F0100EB0147384605F034FEE4
:100AE0008146064905F0F2FD8046054905F0B6FD50
:100AF0003060BDE8F08700000000C84200D0A34588
:100B00000000484210B504F0D4F9012801D005F0E6
:100B10000EFB10BD10B56FF0040000F030FF26484A
:100B200000682649B0FBF1F02549087022480068AA
:100B30002249B0FBF1F44FF47A7044434FF0E020C7
:100B4000006940F002004FF0E0210861084644616E
:100B5000006940F00100086110BD70B50346002235
:100B60004FF0E0267569164E367803FB06F400BF99
:100B70004FF0E026B16910E04FF0E026B0698842FE
:100B80000BD0884202D20E1A324402E02E1A0E44D2
:100B900032440146A24200D300E0EDE700BF70BD41
:100BA00030B50446002504E04FF47A70FFF7D5FF16
:100BB0006D1CA542F8D330BD1400002000127A004D
:100BC0002900002000BF704700BF734A128802F05E
:100BD0004002002AF9D0C2B26F4B1B1D1A80704729
:100BE00010B586B00446012144F2040000F010FC68
:100BF0004FF40070ADF8140003208DF81600182093
:100C00008DF8170005A9654800F046F94FF480609B
:100C1000ADF8140004208DF8170005A95F4800F016
:100C20003BF925208DF8000003208DF801008DF898
:100C3000020001208DF80300684600F056FE019482
:100C40000020ADF80800ADF80A00ADF80C00ADF8D2
:100C500010000C20ADF80E0001A94F4800F07FFCF9
:100C6000012240F225514C4800F011FD01214A4873
:100C700000F001FD06B010BD10B549484089401C88
:100C8000474948810846408942F21071884202DD96
:100C900000204349488140F225513F4800F0DCFDE7
:100CA000002836D03C4800F057FD3E4908703E48C9
:100CB000008850B908460078FF2806D100203B493B
:100CC000087001203849088023E03748008801284F
:100CD00014D134480178354802780078401C334BF1
:100CE00018703348815418460078042811DB02201C
:100CF0002D4908800020194608700AE02A4800881B
:100D0000022806D127480078FE2802D10020264973
:100D1000088010BD70B505460C4621461E4800F0FF
:100D200017FD00BF80211C4800F080FD0028F9D08D
:100D300070BD2DE9F04107460C461546002606E039
:100D40003046721CD6B2215C1348FFF7E3FFAE4277
:100D5000F6DBBDE8F08170B506460C46002506E0DE
:100D600028466A1CD5B2215C0B48FFF7D3FF605DB3
:100D70000028F5D170BD70B505460C46FF21064828
:100D8000FFF7C8FF042221460348FFF7D2FFFE21E8
:100D90000148FFF7BFFF70BD003801400008014067
:100DA000D400002032000020300000203700002056
:100DB000330000200648804706480047FEE7FEE76C
:100DC000FEE7FEE7FEE7FEE7FEE7FEE7FEE7FEE7FB
:100DD0009B0300083101000810B50446CC4884424A
:100DE00008D10121042000F02DFB0021042000F097
:100DF00029FB46E0C748844208D10121082000F0C1
:100E000021FB0021082000F01DFB3AE0C24884428B
:100E100008D10121102000F015FB0021102000F066
:100E200011FB2EE0BD48844208D10121202000F0B2
:100E300009FB0021202000F005FB22E0B848844295
:100E400008D10121402000F0FDFA0021402000F0EF
:100E5000F9FA16E0B348844208D10121802000F05D
:100E6000F1FA0021802000F0EDFA0AE0AE48844259
:100E700007D10121801500F0E5FA0021A01500F04E
:100E8000E1FA10BD10B50121084600F0DBFA00219F
:100E9000012000F0D7FA10BD2DE9F04102460025EF
:100EA0000026002000230024002791F803C00CF046
:100EB0000F0591F803C00CF0100CBCF1000F03D02B
:100EC00091F802C04CEA050591F800C0BCF1000F92
:100ED00031D0146800202BE04FF0010C0CFA00F325
:100EE000B1F800C00CEA03069E4220D183004FF007
:100EF0000F0C0CFA03F7BC4305FA03FC4CEA04049C
:100F000091F803C0BCF1280F06D14FF0010C0CFA88
:100F100000FCC2F814C00AE091F803C0BCF1480F0D
:100F200005D14FF0010C0CFA00FCC2F810C0401CB7
:100F30000828D1D31460B1F800C0BCF1FF0F34DD34
:100F4000546800202EE000F1080C4FF0010808FA68
:100F50000CF3B1F800C00CEA03069E4221D18300D5
:100F60004FF00F0C0CFA03F7BC4305FA03FC4CEAF4
:100F7000040491F803C0BCF1280F05D100F1080C5E
:100F800008FA0CF8C2F8148091F803C0BCF1480FBD
:100F900007D100F1080C4FF0010808FA0CF8C2F86C
:100FA0001080401C0828CED35460BDE8F0814FF675
:100FB000FF710180022181700421C17070470246D7
:100FC000002093680B400BB1012000E00020704727
:100FD0000146886880B2704702460020D3680B4003
:100FE0000BB1012000E0002070470146C86880B2C4
:100FF000704701617047416170470AB1016100E0CB
:1010000041617047C16070474FF480320A4382618A
:101010008161826182698269704702460020434B88
:1010200018684FF68073184040EA021008433F4B9F
:10103000186070473E49C8617047F0B50A46002302
:1010400000240021002500F00046B6F1004F02D137
:10105000364EF16901E0354E7168C0F3034583B245
:1010600000F44016B6F5401F08D121F070612F4EF4
:10107000766826F070662D4F7E6012E000F48016D0
:10108000B6F5801F06D1032606FA05F4A14341F008
:10109000706106E0460D360103FA06F6B14341F0F1
:1010A000706122B1460D360103FA06F6314300F0B5
:1010B0000046B6F1004F02D11C4EF16101E01B4E1B
:1010C0007160F0BD30B500228B071C0F0F2303FAAF
:1010D00004F2164B08338C1053F824309343134C0E
:1010E00008348D1044F8253023468C1053F82430F2
:1010F0008C07240F00FA04F423430C4C08348D10A1
:1011000044F8253030BD0A49DC31086070470000E2
:1011100000080140000C0140001001400014014093
:1011200000180140001C0140002001400000014067
:1011300000002042DF48006840F00100DD490860FF
:1011400008464068DC490840DA49486008460068BB
:10115000DA490840D74908600846006820F4802032
:1011600008600846406820F4FE0048604FF41F0005
:1011700088607047CF49096821F48031CD4A1160F9
:101180001146096821F480211160B0F5803F03D039
:10119000B0F5802F0ED106E0C649096841F48031D0
:1011A000C44A116007E0C349096841F4A021C14A5B
:1011B000116000E000BF00BF704710B5014600227B
:1011C000002300204A11012A02D1BA4C236806E00C
:1011D000022A02D1B74C236A01E0B64C636A01F0DF
:1011E0001F02012494401C400CB1012000E00020AB
:1011F00010BD38B5002000900024002500BF31202C
:10120000FFF7DBFF05460098401C00900098B0F502
:10121000A06F01D0002DF2D03120FFF7CEFF08B132
:10122000012400E00024204638BD01460020A14AE8
:10123000106820F0F80040EAC10010607047A04933
:1012400008607047024600209A4B586820F47C10D2
:1012500042EA01031843974B586070479849086663
:10126000704701460020934A506820F0030008436D
:10127000506070478F48406800F00C00704701468E
:1012800000208C4A506820F0F000084350607047FE
:1012900001460020874A506820F4E060084350600F
:1012A000704701460020834A506820F4605040EAAD
:1012B000C1005060704729B17E4A527A02437D4B8B
:1012C0005A7204E07B4A527A82437A4B5A727047D0
:1012D0007B49D8310860704701460020754A506844
:1012E00020F440400843506070470021714A20328A
:1012F0001170704A82F82010012802D004280AD107
:1013000004E001216B4A2032117005E00521694A91
:101310002032117000E000BF00BF704769490860CB
:1013200070476449096A0143624A1162704765491E
:1013300044390860704730B50021002200240023A2
:101340005C4D6D6805F00C0121B1042905D0082918
:1013500023D105E05C4D056022E05B4D05601FE098
:10136000544D6D6805F47012524D6D6805F480346B
:10137000022505EB92421CB9544D554305600BE024
:101380004C4D6D6805F400351DB1504D5543056059
:1013900002E04D4D5543056002E04B4D056000BF36
:1013A00000BF444D6D6805F0F0010909484D6B5CC4
:1013B0000568DD4045603F4D6D6805F4E061090A50
:1013C000434D6B5C4568DD4085603A4D6D6805F4C2
:1013D0006051C90A3E4D6B5C4568DD40C560354DC6
:1013E0006D6805F44041890B3A4D6B5CC568B5FBEF
:1013F000F3F5056130BD29B12E4A526902432D4BE8
:101400005A6104E02B4A526982432A4B5A61704761
:1014100029B1284A92690243264B9A6104E0254A81
:1014200092698243234B9A61704729B1214AD2695C
:101430000243204BDA6104E01E4AD26982431D4B0D
:10144000DA61704729B11B4AD2680243194BDA604E
:1014500004E0184AD2688243164BDA60704729B11B
:10146000144A12690243134B1A6104E0114A1269CB
:101470008243104B1A617047124940390860704727
:101480000F49C86470470B49C87170470948406AE2
:1014900040F0807007494862704701460020054AC5
:1014A00092680A400AB1012000E00020704701491B
:1014B00088727047001002400000FFF8FFFFF6FE40
:1014C000000042428004424200127A0000093D00BE
:1014D0003C0000204C00002010B50446FB4884422C
:1014E00009D101218803FFF7ADFF00214FF48040AF
:1014F000FFF7A8FF32E0F648844209D101214804F1
:10150000FFF7ADFF00214FF40030FFF7A8FF25E003
:10151000F048844209D101218804FFF7A0FF00218F
:101520004FF48020FFF79BFF18E0EB48844209D17D
:101530000121C804FFF793FF00214FF40020FFF7BB
:101540008EFF0BE0E548844208D101210805FFF732
:1015500086FF00214FF48010FFF781FF10BD2DE9B9
:10156000F04786B005460E460024A24600BFA146BD
:101570000027B08900B100BF2F462C8A4CF6FF70BF
:101580000440F08804432C82AC894EF6F3100440EA
:10159000B08831890843718908430443AC81AC8A1F
:1015A0004FF6FF400440B0890443AC8201A8FFF726
:1015B000C2FEC648874202D1DDF810A001E0DDF886
:1015C0000CA0A88900F4004040B10AEBCA0000EB6F
:1015D0000A1031684900B0FBF1F807E00AEBCA00D5
:1015E00000EB0A1031688900B0FBF1F86420B8FB09
:1015F000F0F004012009642101FB1089A88900F49E
:10160000004040B1322000EBC900B0FBF1F000F027
:101610000700044308E0322000EB09106421B0FB0E
:10162000F1F000F00F0004432C8106B0BDE8F08714
:101630004FF41651016000218180C18001810C218D
:10164000418100218181704710B502460020108A37
:101650004FF2FF0318400B884C8823438C882343A8
:10166000CC8823431843108210BD002101804180A3
:101670008180C180704721B1828942F40052828109
:1016800004E082894DF6FF731A4082817047F0B5FD
:101690000346002400260025002040F66A17B942C0
:1016A00000D100BF1846C1F3421401F01F06012704
:1016B00007FA06F5012C01D10C3004E0022C01D10F
:1016C000103000E014301AB107682F43076002E0C1
:1016D0000768AF430760F0BD1AB1838A0B4383826A
:1016E00002E0838A8B4383827047028A4FF6F0734D
:1016F0001A400282028A0A430282704782894FF2AC
:10170000FF731A40828182890A438281704721B126
:10171000828942F00202828104E082894FF6FD73E1
:101720001A4082817047028A4FF6DF731A400282A4
:10173000028A0A430282704721B1028A42F480423F
:10174000028204E0028A4BF6FF731A40028270475D
:10175000C1F308028280704701468888C0F3080000
:101760007047818941F0010181817047028BD2B2BB
:101770000283028B42EA012202837047028B02F449
:101780007F420283028B0A430283704721B1828A1F
:1017900042F02002828204E0828A4FF6DF731A4010
:1017A0008282704721B1828A42F01002828204E074
:1017B000828A4FF6EF731A408282704721B1828A83
:1017C00042F00802828204E0828A4FF6F7731A40E0
:1017D0008282704721B1828942F40042828103E013
:1017E0008289C2F30E028281704721B1828A42F45B
:1017F0000062828204E0828A4FF2FF731A40828282
:101800007047828A4FF6FB731A408282828A0A43AB
:101810008282704721B1828A42F00202828204E011
:10182000828A4FF6FD731A4082827047024600207A
:10183000B1F5007F00D100BF13880B400BB1012030
:1018400000E00020704701F40072B2F5007F00D183
:1018500000BFCA430280704770B5024600240023CF
:101860000025002040F66A16B14200D100BFC1F346
:10187000421501F01F03012606FA03F3012D02D1E0
:101880009689334006E0022D02D1168A334001E0EA
:10189000968A33400C12012606FA04F41688344066
:1018A00013B10CB1012000E0002070BD10B5002282
:1018B000002340F66A14A14200D100BF0A1201249D
:1018C0009440A3B2DC43048010BD00000038014006
:1018D0000044004000480040004C004000500040E0
:1018E00031490143314A1160704770B5002100232E
:1018F0000F22C47804B32D4C246804F4E064C4F5CA
:10190000E064210AC1F10403CA40447804FA03F1F7
:101910008478144021430901254C0678A1550478A8
:1019200004F01F050124AC4005786D11AD0005F1F0
:10193000E025C5F8004109E0047804F01F05012402
:10194000AC401C4D0678761145F8264070BD1A4A09
:101950000A400243154B1B1F1A60704739B1134AE6
:10196000121D12680243114B1B1D1A6006E00F4A3C
:10197000121D126882430D4B1B1D1A60704704280C
:1019800008D14FF0E021096941F004014FF0E02255
:10199000116107E04FF0E021096921F004014FF0E7
:1019A000E0221161704700000000FA050CED00E034
:1019B00000E400E080E100E080FFFF1F10B5044676
:1019C000FE48844208D10121C014FFF73BFD0021ED
:1019D000E014FFF737FDC4E0B4F1804F08D10121D6
:1019E0000846FFF73CFD00210120FFF738FDB8E075
:1019F000F348844208D101210220FFF730FD002185
:101A00000220FFF72CFDACE0EE48844208D1012112
:101A10000420FFF724FD00210420FFF720FDA0E0B3
:101A2000E948844208D101210820FFF718FD002170
:101A30000820FFF714FD94E0E448844208D1012116
:101A40001020FFF70CFD00211020FFF708FD88E0B3
:101A5000DF48844208D101212020FFF700FD00214A
:101A60002020FFF7FCFC7CE0DA48844208D1012109
:101A70004014FFF7E7FC00216014FFF7E3FC70E07F
:101A8000D548844209D10121C804FFF7DBFC0021BD
:101A90004FF40020FFF7D6FC63E0D048844209D120
:101AA00001210805FFF7CEFC00214FF48010FFF75D
:101AB000C9FC56E0CA48844209D101214805FFF714
:101AC000C1FC00214FF40010FFF7BCFC49E0C54801
:101AD000844208D101214020FFF7C1FC00214020B1
:101AE000FFF7BDFC3DE0C048844208D101218020C1
:101AF000FFF7B5FC00218020FFF7B1FC31E0BB48C7
:101B0000844208D101218015FFF7A9FC0021A0150E
:101B1000FFF7A5FC25E0B648844209D1012108045D
:101B2000FFF790FC00214FF48030FFF78BFC18E0AA
:101B3000B048844209D101214804FFF783FC002109
:101B40004FF40030FFF77EFC0BE0AB48844208D135
:101B500001218804FFF776FC00214FF48020FFF775
:101B600071FC10BD00220288944B98420ED0994B14
:101B700098420BD0B0F1804F08D0914B984205D0DD
:101B8000904B984202D0904B984204D14FF68F73FD
:101B90001A404B881A438D4B984207D08C4B984281
:101BA00004D04FF6FF431A40CB881A4302808B883B
:101BB00083850B880385814B98420BD0854B9842D7
:101BC00008D08B4B984205D08A4B984202D08A4B62
:101BD000984201D10B7A038601238382704770B546
:101BE000002400220023058C4FF6FE763540058444
:101BF000028C8388048B4FF68F752C40B51E2C40C9
:101C00000D882C43751E2A400D892A434D882A438E
:101C10006A4DA8420BD06F4DA84208D0744DA8421F
:101C200005D0744DA84202D0734DA84213D14FF68F
:101C3000F7752A404D892A434FF6FB752A408D8857
:101C40002A434FF6FF652B404FF6FF552B408D89F9
:101C50002B43CD892B4383800483CD8885860284E2
:101C600070BD70B5002400220023058C4FF6EF767E
:101C700035400584028C8388048B48F6FF752C4020
:101C80004FF6FF452C400D884FF6FF7606EA0525F6
:101C90002C434FF6DF752A400D8906EA05152A43C5
:101CA0004D8806EA05152A43444DA84202D0494D05
:101CB000A8421DD14FF67F752A404D894FF6FF7619
:101CC00006EA05152A434FF6BF752A408D8806EAB5
:101CD00005152A434FF6FF352B404FF2FF752B4079
:101CE0008D8906EA85052B43CD8906EA85052B43B8
:101CF00083800483CD880587028470BD70B500247D
:101D000000220023058C4FF6FF6635400584028CC7
:101D10008388848B4FF68F752C404FF6FC752C40D2
:101D20000D882C434FF6FF552A400D894FF6FF765C
:101D300006EA05252A434D8806EA05252A431F4D54
:101D4000A84202D0234DA8421DD14FF2FF752A4070
:101D50004D894FF6FF7606EA05252A434FF6FF35F3
:101D60002A408D8806EA05252A434EF6FF752B404A
:101D70004DF6FF752B408D8906EA05152B43CD895D
:101D800006EA05152B4383808483CD8885870284EA
:101D900070BD70B5002200230024058C4EF6FF763E
:101DA00035400584038C8488828B48F6FF752A4071
:101DB0004FF6FF452A400D8820E00000002C01402E
:101DC0000004004000080040000C004000100040EB
:101DD0000014004000340140004C0140005001401C
:101DE0000054014000180040001C0040002000404A
:101DF0000040014000440140004801404FF6FF769A
:101E000006EA05252A434DF6FF752B400D8906EAA3
:101E100005352B434D8806EA05352B43FA4DA8427C
:101E200002D0FA4DA84208D14BF6FF752C408D899F
:101E30004FF6FF7606EA85152C4384808283CD8891
:101E4000A0F84050038470BD828B4FF2FF331A40DC
:101E50008283828B4FF6FF7303EA01231A43828346
:101E60007047F0B50C461546002200210026078C6D
:101E70004EF6FF7C07EA0C070784828B018C4FF635
:101E8000FF7707EA043640F6FF473A404FF6FF7700
:101E900007EA05273A434FF6FF7707EA03373A4345
:101EA000D94FB8420ED0D94FB8420BD0B0F1804FC5
:101EB00008D0D74FB84205D0D64FB84202D0D64F3F
:101EC000B84206D14DF6FF77394046F48057394382
:101ED00005E047F6FF57394044F480573943828381
:101EE0000184F0BD828B4FF6F3731A408283828B9C
:101EF0000A4382837047F0B50C4615460022002144
:101F00000026078C4FF6FF6C07EA0C070784828BCC
:101F1000018C4FF6FF7707EA04264FF60C773A401C
:101F20004FF6FF7707EA03172F433A43B64FB842FD
:101F30000ED0B64FB8420BD0B0F1804F08D0B44F9E
:101F4000B84205D0B34FB84202D0B34FB84206D121
:101F50004FF6FF57394046F48077394305E04FF29A
:101F6000FF57394044F48077394382830184F0BDC0
:101F7000028B4FF2FF331A400283028B4FF6FF733E
:101F800003EA01231A4302837047F0B50C46154655
:101F9000002200210026078C4FF6EF7C07EA0C0791
:101FA0000784028B018C4FF6FF7707EA041640F690
:101FB000FF473A404FF6FF7707EA03373A434FF6B9
:101FC000FF7707EA05273A438F4FB8420ED08F4F6D
:101FD000B8420BD0B0F1804F08D08D4FB84205D039
:101FE0008C4FB84202D08C4FB84206D14FF6DF7703
:101FF000394046F01007394305E04FF65F77394026
:1020000044F01007394302830184F0BD028B4FF680
:10201000F3731A400283028B0A4302837047F0B5C0
:102020000C46154600220021068C4FF6FE773E40F6
:102030000684028B018C4FF60C7632407E1C06EA39
:1020400003162E433243704EB0420ED06F4EB04254
:102050000BD0B0F1804F08D06D4EB04205D06D4E20
:10206000B04202D06C4EB04206D14FF6FD76314000
:1020700044F00106314305E04FF6F576314044F077
:102080000106314302830184F0BD70B505460C465C
:102090005D4885420ED05D4885420BD0B5F1804F3A
:1020A00008D05B48854205D05A48854202D05A483C
:1020B000854200D100E000BF208850B92389A28862
:1020C00061882846FFF7ABFFE1882846FFF79EFFAF
:1020D00025E0208804280AD12389A288618828461F
:1020E000FFF753FFE1882846FFF742FF17E02088FB
:1020F00008280AD12389A28861882846FFF7FBFEB9
:10210000E1882846FFF7EEFE09E02389A28861886E
:102110002846FFF7A6FEE1882846FFF795FE70BD2A
:102120002DE9F04105460C4600260127608808B9D4
:10213000022600E00026A088012801D1022700E045
:1021400001272088A0B92389A28861882846FFF743
:1021500066FFE1882846FFF759FF23893A46314652
:102160002846FFF712FFE1882846FFF701FF13E03A
:102170002389A28861882846FFF707FFE18828465F
:10218000FFF7F6FE23893A4631462846FFF747FF18
:10219000E1882846FFF73AFFBDE8F0810A884B88BE
:1021A0001A438B881A43CB881A430B891A434B89ED
:1021B0001A438B891A43A0F8442070474FF6FF71E9
:1021C000818000210180C18041800172704700211F
:1021D000018041808180C180018141818181C181F3
:1021E0007047002101804180012181800021C18050
:1021F000018170470021018041808180C18001817F
:102200004181818170470000002C01400034014071
:102210000004004000080040000C004021B102888A
:1022200042F00102028004E002884FF6FE731A4079
:102230000280704731B1B0F8442042F40042A0F867
:10224000442005E0B0F84420C2F30E02A0F8442078
:1022500070471AB183890B43838102E083898B43E2
:10226000838170478182704741EA0203A0F84830B9
:1022700070471AB183890B43838102E083898B43C2
:102280008381704701894FF6F872114001817047D0
:102290000A46002101894FF68F73194011430181CD
:1022A000704730B504460D4629462046FFF7F0FF3B
:1022B000208940F00700208130BD2DE9F04104461F
:1022C0000D4616461F46602D06D13B46012231467B
:1022D0002046FFF75AFE05E03B46012231462046E4
:1022E000FFF79DFE29462046FFF7D2FF208940F0E8
:1022F00007002081BDE8F08130B50C46002101893E
:10230000C9B24FF6FF7505EA032515432543294356
:10231000018130BD2DE9F04105460E46174698462D
:10232000002443463A4631462846FFF7E5FF2C890C
:102330004FF6F870044044F007044FF68F700440E5
:1023400044F070042C81BDE8F081F0B504460D46E0
:1023500016461F463B46324629462046FFF7CCFF2D
:10236000208940F480402081F0BD01858282704741
:102370000A46002101884FF68F73194011430180EE
:102380007047F0B50C4615461E460021002200237A
:102390000189028B038C4FF6F877394021434FF6C1
:1023A000FC473A4040F201173A434FF6DD773B4095
:1023B0004FF6FF7707EA06172F433B43018102835D
:1023C0000384F0BD0A460021018B4FF68F7319403C
:1023D0001143018370470A460021018B48F6FF73C1
:1023E00019404FF6FF7303EA022319430183704734
:1023F0000A460021818B4FF68F7319401143818368
:1024000070470A460021818B48F6FF7319404FF64A
:10241000FF7303EA022319438183704721B10288C5
:1024200042F08002028004E002884FF67F731A4077
:102430000280704721B1828842F00402828004E069
:1024400082884FF6FB731A408280704721B18288E0
:1024500042F00802828004E082884FF6F7731A4047
:102460008280704721B1828842F00102828004E0BC
:1024700082884FF6FE731A40828070470A46002118
:10248000018B4FF6F77319401143018370470A46D9
:102490000021018B4FF2FF7319404FF6FF7303EADF
:1024A00002231943018370470A460021818B4FF6AE
:1024B000F77319401143818370470A460021818BCD
:1024C0004FF2FF7319404FF6FF7303EA02231943DB
:1024D000818370470A460021018B4FF6FB73194038
:1024E0001143018370470A460021018B4FF6FF33E9
:1024F00019404FF6FF7303EA022319430183704723
:102500000A460021818B4FF6FB73194011438183EA
:1025100070470A460021818B4FF6FF3319404FF672
:10252000FF7303EA02231943818370470A4600219F
:10253000018B4FF67F7319401143018370470A46A0
:102540000021018BC1F30E014FF6FF7303EA022352
:102550001943018370470A460021818B4FF67F7330
:1025600019401143818370470A460021818BC1F3D2
:102570000E014FF6FF7303EA02231943818370476C
:102580000A460021018C4FF6FD7319401143018466
:1025900070470A460021018C4FF6F773194011432A
:1025A000018470470A460021018C4FF6DF73194001
:1025B0004FF6FF7303EA02131943018470470A467A
:1025C0000021018C4FF67F7319404FF6FF7303EA29
:1025D00002131943018470470A460021018C4FF60B
:1025E000FF5319404FF6FF7303EA02231943018496
:1025F00070470A460021018C4FF2FF7319404FF6D5
:10260000FF7303EA02231943018470470A4600213D
:10261000018C4DF6FF7319404FF6FF7303EA023346
:1026200019430184704730B5002301248C40A3B2C4
:10263000048C9C430484048C02FA01F5ADB22C4353
:10264000048430BD30B5002304248C40A3B2048C34
:102650009C430484048C02FA01F5ADB22C4304843B
:1026600030BD70B5034600200024184618300125FF
:102670008D40ACB21D8CA5431D8409B1082909D138
:1026800000EB6100056825F07005056005681543DD
:1026900005600EE00D1FC5F34E052844056825F4BE
:1026A000E045056005684FF6FF7606EA02263543E9
:1026B000056070BD21B1028842F00202028004E090
:1026C00002884FF6FD731A400280704721B10288DC
:1026D00042F00402028004E002884FF6FB731A40C5
:1026E0000280704721B1828842F08002828004E03B
:1026F00082884FF67F731A408280704702884FF6B7
:10270000F7731A40028002880A4302807047828869
:102710004FF68F731A40828082880A438280704706
:1027200002894FF6F8731A40028102890A43028136
:10273000704702894FF67F731A40028102890A436B
:102740000281704781847047818570478186704718
:102750000187704781877047A0F840107047028852
:102760004FF6FF431A40028002880A4302807047F6
:102770000146888E70470146088F70470146888F52
:1027800070470146B1F8400070470146888C704799
:102790000146088D704702460020138A0B400BB19A
:1027A000012000E000207047CA430282704730B524
:1027B0000246002000230024158A05EA01039589BA
:1027C00005EA010413B10CB1012000E0002030BD86
:1027D000CA4302827047000010B50446F74884429D
:1027E00009D101214805FEF73AFE00214FF40010FF
:1027F000FEF735FE08E001218805FEF730FE0021D6
:102800004FF48000FEF72BFE10BD2DE9F04385B09C
:1028100004460D460026B1460427DFF8A483A688A7
:102820004FF6C07006406846FEF785FDDDF808806B
:10283000E448B8FBF0F01FFA80F946EA0906A680E2
:1028400020884FF6FE71084020800026DE49286867
:1028500088420CD828684000B8FBF0F087B2042FFB
:1028600000DA04273E4309F10100208427E0E888CC
:102870004BF6FF71884206D1286800EB4000B8FB98
:10288000F0F087B209E0286800EBC00101EB00100E
:10289000B8FBF0F087B247F48047C7F30B0008B9E4
:1028A00047F0010747F4004006434FF4967009FBD8
:1028B00000F04FF47A7190FBF1F0401C2084A68365
:1028C000208840F00100208026884FF6F530064031
:1028D000A8886989084306432680A889298908436E
:1028E000208105B0BDE8F08341F28831016000210C
:1028F00081804BF6FF71C1800021018141814FF43D
:1029000080418181704721B1028842F0010202803A
:1029100004E002884FF6FE731A400280704721B12E
:10292000828842F40062828004E082884FF2FF7362
:102930001A408280704721B1828842F4805282809E
:1029400004E082884EF6FF731A408280704721B1FE
:10295000028842F48072028004E002884FF6FF632E
:102960001A400280704721B1028842F4007202804E
:1029700004E002884FF6FF531A400280704721B1ED
:10298000028842F48062028004E002884FF6FF333E
:102990001A40028070470A46002181894FF6017370
:1029A000194002F0FE0319438181704721B18289E9
:1029B00042F00102828104E082894FF6FE731A40E0
:1029C0008281704721B1028842F04002028004E017
:1029D00002884FF6BF731A40028070471AB183888D
:1029E0000B43838002E083888B438380704701829E
:1029F00070470146088AC0B2704712B141F0010128
:102A000002E04FF6FE7319400182704708B5024696
:102A100000200090009200980844009000980088E0
:102A200008BD21B1028842F40042028003E002881E
:102A3000C2F30E0202807047B1F5006F04D1028824
:102A400042F40062028004E002884FF2FF731A40F1
:102A500002807047B1F5005F04D1028842F4005251
:102A6000028004E002884DF6FF731A40028070472E
:102A700021B1028842F48052028004E002884EF6BE
:102A8000FF731A4002807047B1F5006F04D10288CD
:102A900042F40062028004E002884FF2FF731A40A1
:102AA0000280704721B1028842F02002028004E0D7
:102AB00002884FF6DF731A40028070470146088B88
:102AC0000012704721B1028842F01002028004E037
:102AD00002884FF6EF731A400280704721B90288CE
:102AE00042F08002028004E002884FF67F731A40B1
:102AF00002807047B1F5804F05D0828B4BF6FF7393
:102B00001A40828303E0828B42F4804282837047C2
:102B100070B502460024002500230020958A138BFF
:102B20001B0445EA030626F07F4404EA01068E42B0
:102B300001D1012000E0002070BD10B50146002049
:102B4000002300228B8A0A8B120443EA020424F039
:102B50007F4010BD0CB50246002000230193009376
:102B600000920B0F019321F07F41019B1BB1009B51
:102B70001433009303E0090C009B18330093009B6F
:102B80001B680B400BB1012000E000200CBD0022AF
:102B900021F07F42D3438382704730B50246002044
:102BA0000023948801F0E06504EA154321F07F4199
:102BB000948A0C4054B14BB1012008E0005400400D
:102BC00000127A0040420F00A0860100002030BDB4
:102BD000002221F07F42D3438382704700F1080135
:102BE00041604FF0FF31816000F10801C160016177
:102BF00000210160704700210161704742684A600E
:102C000093688B60936859609160086103685B1CEE
:102C10000360704710B502460B685C1C0CB9106964
:102C200007E002F1080000E04068446824689C4224
:102C3000FAD944684C604C68A160886041600A61C0
:102C40001468641C146010BD01460A69D1E90130A2
:102C50009860D1E9010358605068884201D18868C2
:102C60005060002008611068401E106010687047B6
:102C700070B505460E462C462CB940F20D12F4A153
:102C8000F8A004F04FF803F017FAD4E90F12206807
:102C900001FB0200A0600020A06320686060E06B80
:102CA000401E226C216800FB0211E160FF2084F8C5
:102CB000440084F845009EB9206908B9012000E06D
:102CC0000020A8B904F1100001F0ECFF80B14FF032
:102CD0008050E8490860BFF34F8FBFF36F8F07E064
:102CE00004F11000FFF77AFF04F12400FFF776FFEC
:102CF00003F005FA012070BD2DE9F04106460D46AE
:102D000017469846069C0DB9246000E02760E663EC
:102D1000256401212046FFF7ABFF84F85080002096
:102D2000A064BDE8F0812DE9F84306460F469046C1
:102D30000EB1012000E0002028B94FF4C372C4A1F5
:102D4000C8A003F0EFFF06FB07F51FB1B5FBF7F0D6
:102D5000B04201D1012000E0002028B94FF4C77231
:102D6000BBA1C0A003F0DEFF05F15400A84201D9C9
:102D7000012000E0002028B940F29112B4A1B9A0CE
:102D800003F0D0FF05F1540003F0A3FA04464CB160
:102D9000A14609F1540943464A4639463046009453
:102DA000FFF7AAFF2046BDE8F8832DE9F04104466D
:102DB0000F4615464FF00008A66B206C48B92068F6
:102DC00000282CD1A06802F0D6F880460020A06030
:102DD00025E07DB93946226C606803F0B9FB216CAF
:102DE000606808446060D4E90101884217D3206814
:102DF000606014E03946226CE06803F0A9FB216CA6
:102E0000E068411AE1602168E068884203D2216CE1
:102E1000A068411AE160022D01D106B1761E701C36
:102E2000A0634046BDE8F081F1B50098846C0026AF
:102E30002CB940F69A3286A18AA003F073FFA06BEA
:102E4000E16B884201D2012000E0002028B940F661
:102E50009B327FA183A003F065FFA06BE16B8842EA
:102E600027D294F94550002269462046FFF79DFF7E
:102E70000646681C60B9606A08B9012000E00020BD
:102E8000B0B904F1240001F00DFF88B101260FE074
:102E90007F2D01D0012000E0002028B940F6BB3290
:102EA0006BA170A003F03EFF681C40B284F845009F
:102EB00000BF3046F8BD70B5044603F0FDF894F944
:102EC000455019E0A06C30B12046FFF7ADFF88B146
:102ED00001F0DDFF0EE0606A08B9012000E000208B
:102EE00038B904F1240001F0DDFE18B101F0CFFF84
:102EF00000E003E0681E45B2002DE3DC00BFFF20C8
:102F000084F8450003F0FBF803F0D6F894F9445038
:102F100010E0206908B9012000E0002048B904F160
:102F2000100001F0BFFE08B101F0B1FF681E45B20C
:102F300000E001E0002DECDC00BFFF2084F844003D
:102F400003F0DDF870BD70B5054603F0B5F8A86B69
:102F5000E96B884201D1012400E0002403F0CFF89E
:102F6000204670BD2DE9FF4782B0064688461D46C3
:102F70004FF0000934462CB94FF4437234A139A004
:102F800003F0D0FEB8F1000F01D1206C08B9012088
:102F900000E0002028B940F20D322DA131A003F04D
:102FA000C1FE022D02D1E06B012801D1012000E019
:102FB000002028B940F20E3225A12AA003F0B2FE6B
:102FC00001F077FF08B9049808B9012000E000205B
:102FD00028B940F211321EA122A003F0A3FE00BFC7
:102FE00003F06AF8A06BE16B884201D3022D53D144
:102FF000D4F838A02A4641462046FFF7D6FE0746B9
:10300000A06C88B1022D02D1BAF1000F3ED120464A
:10301000FFF70AFF80B34FF0805016490860BFF3F6
:103020004F8FBFF36F8F31E0606A08B9012000E075
:10303000002010BB04F1240001F034FEE0B14FF099
:1030400080500C490860BFF34F8FBFF36F8F1DE0B6
:103050002E2E5C4672656552544F535C71756575D2
:10306000652E63004572726F723A25732C25640DCC
:103070000A00000004ED00E008E03FB14FF080508E
:10308000FA490860BFF34F8FBFF36F8F03F037F833
:10309000012006B0BDE8F087049818B903F02FF8B6
:1030A0000020F6E7B9F1000F04D1684601F0AAFE4E
:1030B0004FF0010903F023F801F0F9F802F0FCFFEA
:1030C00094F94400401C10B9002084F8440094F99D
:1030D0004500401C10B9002084F8450003F00FF8AB
:1030E00004A9684601F095FEF8B92046FFF72BFFCA
:1030F000A8B104F11000049901F076FD2046FFF715
:10310000DAFE01F029F800287FF46AAF4FF0805012
:10311000D6490860BFF34F8FBFF36F8F60E720463B
:10312000FFF7C9FE01F018F85AE72046FFF7C3FE83
:1031300001F012F80020ACE710B5044654B10020AD
:10314000A06020600021E16000231A461946204655
:10315000FFF708FF10BD2DE9F041044601260027C6
:10316000224600210120FFF7DEFD05462846FFF735
:10317000E3FF2846BDE8F08170B505462C463CB912
:1031800040F26D22AFF23811AFF2281003F0CAFD01
:1031900001F08CFEA16888420CD1E068401EE0601E
:1031A000E06828B900231A4619462046FFF7DAFEE0
:1031B000012600E00026304670BD01464A6A22B171
:1031C0000A6B1268C2F1200000E00020704770B561
:1031D000054602F071FFA86B08B9012400E0002445
:1031E00002F08DFF204670BD2DE9F34182B0054607
:1031F0004FF000082C4600263CB940F2C152AFF215
:10320000B011AFF2A01003F08DFD206C08B90120C1
:1032100000E0002038B940F2C552AFF2CC11AFF255
:10322000BC1003F07FFD01F044FE08B9039808B913
:10323000012000E0002038B940F2CA52AFF2F0118C
:10324000AFF2E01003F06EFD00BF02F035FFA76B98
:10325000FFB1781EA063206810B901F0E3FFA06001
:10326000206908B9012000E0002060B904F11000D5
:1032700001F018FD38B14FF080507C490860BFF371
:103280004F8FBFF36F8F02F03AFF012004B0BDE80B
:10329000F081039880B90EB9012000E0002038B910
:1032A0004FF4C262AFF25821AFF2482003F03AFD6A
:1032B00002F025FF0020E9E7B8F1000F04D16846CD
:1032C00001F0A0FD4FF0010802F019FF00F0EFFF40
:1032D00002F0F2FE94F94400401C10B9002084F87A
:1032E000440094F94500401C10B9002084F84500C2
:1032F00002F005FF03A9684601F08BFD40BB2046A4
:10330000FFF765FFF0B1206838B902F0D5FEA0687C
:1033100001F0DBFD064602F0F2FE04F12400039901
:1033200001F062FC2046FFF7C6FD00F015FF002803
:103330008BD14FF080504D490860BFF34F8FBFF3E2
:103340006F8F82E72046FFF7B6FD00F005FF7CE7B0
:103350002046FFF7B0FD00F0FFFE2046FFF737FFE5
:103360000028EED05EB102F0A7FE2046FFF725FF51
:1033700007463946A06801F04FFE02F0C0FE00206B
:1033800084E72DE9F04106460F4634463CB940F249
:10339000A522AFF24431AFF2343003F0C3FC01F0A8
:1033A00085FDA168884204D1E068401CE0600125E9
:1033B00008E039462046FFF717FF054615B1E068DB
:1033C000401CE0602846BDE8F08170B505460E4619
:1033D0000DB1012000E0002038B940F2ED22AFF23B
:1033E0009031AFF2803003F09DFCAE4201D8012055
:1033F00000E0002038B940F2EE22AFF2AC31AFF27B
:103400009C3003F08FFC022200212846FFF78BFC42
:10341000044604B1A663204670BD2DE9F84F8046EE
:103420008B4615461E4644463CB94FF47872AFF2BF
:10343000E031AFF2D03003F075FCBBF1000F01D1E9
:10344000206C08B9012000E0002038B940F2E132D8
:10345000AFF20441AFF2F43003F064FC022E02D16B
:10346000E06B012804D1012003E0000004ED00E03E
:10347000002038B940F2E232AFF22C41AFF21C40EA
:1034800003F050FC02F06BFE00BF5021EFF31180FF
:1034900081F31188BFF34F8FBFF36F8F00BF0746D3
:1034A000A06BE16B884201D3022E3FD194F945A075
:1034B000A06B0090324659462046FFF776FC0AF191
:1034C0000100E0B9A06C58B1022E01D1009850BBA8
:1034D0002046FFF7A9FC30B32DB30120286022E07D
:1034E000606A08B9012000E00020E0B904F124007E
:1034F00001F0D8FBB8B1B5B10120286013E0BAF1F2
:103500007F0F01D0012000E0002038B940F26B426B
:10351000AFF2C441AFF2B44003F004FC0AF1010081
:1035200040B284F845004FF0010901E04FF0000976
:1035300000BF87F3118800BF4846BDE8F88F2DE92A
:10354000F04707460D463C463CB940F28B42AFF28D
:103550000051AFF2F04003F0E5FB206C08B9012008
:1035600000E0002038B940F28F42AFF21C51AFF2B8
:103570000C5003F0D7FB206808B9A06808B90120F7
:1035800000E0002038B940F29442AFF23C51AFF273
:103590002C5003F0C7FB02F0E2FD00BF5021EFF317
:1035A000118081F31188BFF34F8FBFF36F8F00BF7E
:1035B0000646D4F838A0E06B504537D994F94590C9
:1035C0000AF10100A06309F10100C0B9A06C38B193
:1035D0002046FFF729FC30B32DB30120286022E0FC
:1035E000606A08B9012000E00020E0B904F124007D
:1035F00001F058FBB8B1B5B10120286013E0B9F172
:103600007F0F01D0012000E0002038B940F21352B2
:10361000AFF2C451AFF2B45003F084FB09F10100E2
:1036200040B284F845004FF0010801E04FF0000877
:1036300000BF86F3118800BF4046BDE8F08770B533
:1036400004460D46206C70B1216CE0680144E160D5
:10365000D4E90210884201D32168E1602846226C37
:10366000E16802F075FF70BD2DE9F74183B00546B2
:103670000E464FF000082C463CB940F22F52AFF2F4
:103680003061AFF2206003F04DFB0EB9206C08B939
:10369000012000E0002038B940F23352AFF250610F
:1036A000AFF2406003F03EFB01F003FC08B905985F
:1036B00008B9012000E0002038B94FF4A762AFF24A
:1036C0007061AFF2606003F02DFB00BF02F0F4FC0C
:1036D000A76BF7B131462046FFF7B1FF781EA06314
:1036E000206908B9012000E0002060B904F1100051
:1036F00001F0D8FA38B14FF08050F8490860BFF3B4
:103700004F8FBFF36F8F02F0FAFC012006B0BDE8C7
:10371000F081059818B902F0F2FC0020F6E7B8F144
:10372000000F04D101A801F06DFB4FF0010802F079
:10373000E6FC00F0BCFD02F0BFFC94F94400401C24
:1037400010B9002084F8440094F94500401C10B9D9
:10375000002084F8450002F0D2FC05A901A801F080
:1037600058FBF0B92046FFF732FDA0B104F1240068
:10377000059901F039FA2046FFF79DFB00F0ECFCBB
:103780000028A3D14FF08050D4490860BFF34F8F79
:10379000BFF36F8F9AE72046FFF78DFB00F0DCFC4C
:1037A00094E72046FFF787FB00F0D6FC2046FFF7A2
:1037B0000EFD00288AD00020A8E72DE9F74382B04B
:1037C00005460E464FF000082C463CB940F29A627E
:1037D000AFF28471AFF2747003F0A4FA0EB9206CEA
:1037E00008B9012000E0002038B940F29E62AFF233
:1037F000A071AFF2907003F095FA01F05AFB08B98E
:10380000049808B9012000E0002038B940F2A36212
:10381000AFF2C471AFF2B47003F084FA00BF02F0EB
:103820004BFCD4F83890B9F1000F1ED0E768314650
:103830002046FFF704FFE760606A08B9012000E056
:10384000002060B904F1240001F02CFA38B14FF0E7
:103850008050A2490860BFF34F8FBFF36F8F02F013
:103860004EFC012005B0BDE8F083049818B902F0C1
:1038700046FC0020F6E7B8F1000F04D1684601F0DD
:10388000C1FA4FF0010802F03AFC00F010FD02F01E
:1038900013FC94F94400401C10B9002084F8440043
:1038A00094F94500401C10B9002084F8450002F04E
:1038B00026FC04A9684601F0ACFAF0B92046FFF7EF
:1038C00086FCA0B104F12400049901F08DF9204692
:1038D000FFF7F1FA00F040FC0028A0D14FF0805033
:1038E0007E490860BFF34F8FBFF36F8F97E7204685
:1038F000FFF7E1FA00F030FC91E72046FFF7DBFA32
:1039000000F02AFC2046FFF762FC002887D0002048
:10391000A8E72DE9F05F06468A46174634463CB9CB
:1039200040F22F72AFF6D801AFF6C80003F0FAF9F3
:10393000BAF1000F01D1206C08B9012000E000208D
:1039400038B94FF4E662AFF6F801AFF6E80003F0DD
:10395000E9F902F004FC00BF5021EFF3118081F37C
:103960001188BFF34F8FBFF36F8F00BF0546D4F8A8
:1039700038B0BBF1000F31D094F944905146204645
:10398000FFF75DFEABF10100A06309F1010070B922
:10399000206908B9012000E00020E0B904F110001E
:1039A00001F080F9B8B1B7B10120386013E0B9F186
:1039B0007F0F01D0012000E0002038B940F273727F
:1039C000AFF67411AFF6641003F0ACF909F1010021
:1039D00040B284F844004FF0010801E04FF00008C5
:1039E00000BF85F3118800BF4046BDE8F09F2DE978
:1039F000F0470646884634463CB940F28E72AFF630
:103A0000B011AFF6A01003F08DF9B8F1000F01D19D
:103A1000206C08B9012000E0002038B940F28F7214
:103A2000AFF6D411AFF6C41003F07CF9206C08B1E6
:103A3000012000E0002038B94FF4F262AFF6F01137
:103A4000AFF6E01003F06EF902F089FB00BF5021E1
:103A5000EFF3118081F31188BFF34F8FBFF36F8FA6
:103A600000BF0546A06B48B1D4F80C9041462046F3
:103A7000FFF7E5FDC4F80C90012700E0002700BF28
:103A800085F3118800BF3846BDE8F08770B504465D
:103A90003CB940F2C172AFF64821AFF6382003F0CE
:103AA00041F902F009FBA56B02F029FB284670BD25
:103AB00070B5044625463DB940F2D272AFF670218A
:103AC000AFF6602003F02EF902F0F6FAD5E90E10F9
:103AD000461A02F014FB304670BD000004ED00E011
:103AE00070B5044625463DB940F2E372AFF6A02119
:103AF000AFF6902003F016F9AE6B304670BD01466C
:103B000000200EE0764A02EBC00252688A4207D1DA
:103B10000022734B43F8302003EBC0035A6002E0ED
:103B2000401C0828EED300BF704770B504462546F8
:103B30003DB940F2EE72AFF6E821AFF6D82003F0BF
:103B4000F1F82846FFF7DBFF284602F059FC70BD6C
:103B50000146C86C7047C1647047014691F8500037
:103B6000704770B5044626463EB940F64812AFF697
:103B70002031AFF6103003F0D5F8B06B08B901254D
:103B800000E00025284670BD70B5044626463EB9C3
:103B900040F67112AFF64831AFF6383003F0C2F894
:103BA000B06BF16B884201D1012500E00025284669
:103BB00070BD024600200BE0494B53F8303033B95A
:103BC000474B43F8301003EBC0035A6002E0401C3F
:103BD0000828F1D300BF70470246002000210AE008
:103BE0003F4B03EBC1035B68934203D13C4B53F85B
:103BF000310002E0491C0829F2D300BF70472DE9CB
:103C0000F04105460E4617462C4602F055FA94F947
:103C10004400401C10B9002084F8440094F9450089
:103C2000401C10B9002084F8450002F068FAA06B2F
:103C300028B93A46314604F1240001F018F820462C
:103C4000FFF739F9BDE8F08170B504460022042180
:103C50002046FFF768F80546284670BD70B5044653
:103C60000E4602F029FAA06C08B1002505E0A06B11
:103C700008B1002501E0A664012502F040FA2846BB
:103C800070BD2DE9F04105460F462E46B06CB84296
:103C900001D000240AE0B06B08B1002406E002F075
:103CA0000BFA0020B06402F02AFA01242046BDE895
:103CB000F08138B505460C46002000902246694642
:103CC0002846FFF7D1FC009838BD38B504460020DF
:103CD0000090002269462046FFF71BFE009838BD81
:103CE000E000002010B5002407E004EB8401F94A4D
:103CF00002EB8100FEF772FF641C202CF5D3F6481E
:103D0000FEF76CFFF548FEF769FFF548FEF766FF22
:103D1000F448FEF763FFF448FEF760FFEE48F3490E
:103D20000860EE48F249086010BD10B5044602F084
:103D3000C3F9F0480068401CEE490860EE4800688E
:103D400040B9ED4804600846006801280DD1FFF72E
:103D5000C9FF0AE0E948006838B9E7480068C06A66
:103D6000E16A884201D8E4480460E5480068401CE4
:103D7000E349086008460068606494F82C1001204C
:103D80008840E04909680843DE490860E16A01EBC0
:103D90008101D04A02EB8100211DFEF72FFF02F0C6
:103DA000AEF9D648006868B1D3480068C06AE16AD5
:103DB000884207D24FF08050D3490860BFF34F8F3D
:103DC000BFF36F8F10BD2DE9F05F82460E4690461F
:103DD0009B460A9F0C9C4FEA8801A522206B02F0AB
:103DE000C9FBA8F10100216B01EB800929F007094B
:103DF00009F0070008B9012000E0002028B940F2CE
:103E00005E32C2A1C6A002F08DFF86B1002507E098
:103E1000715D04F134004155705D00B902E06D1C24
:103E2000102DF5D300BF00214320015502E00020F2
:103E300084F83400202F00D31F27E762E7640020B6
:103E40002065201DFEF7D7FE04F11800FEF7D3FE13
:103E50002461C7F12000A06164620020606584F8DD
:103E600058005A465146484602F07CF820600B98AC
:103E700008B10B980460BDE8F09F2DE9FF4F85B0B5
:103E8000804689461746DDE912ABB80002F021FAF8
:103E9000064656B15C2002F01CFA04460CB12663BB
:103EA00004E0304602F0ACFA00E000247CB10020CF
:103EB000CDE900ABCDE902403A4649464046089B71
:103EC000FFF781FF2046FFF730FF012501E04FF0AB
:103ED000FF35284609B0BDE8F08F844800680068C7
:103EE00008B9012000E0002020B14FF0FF309049D8
:103EF000086005E07D480068C06800688C4908607B
:103F0000704710B50446206B02F07AFA204602F0A2
:103F100077FA10BD70B5054602F0CEF815B97648AF
:103F2000006800E028460446201DFEF78DFE78B9A3
:103F3000E06A00EB8000674951F8200040B994F82E
:103F40002C10012088406F49096881436D48016049
:103F5000A06A18B104F11800FEF776FE6848006800
:103F6000401C6749086064480068844209D1211DEB
:103F70005C48FEF743FE6F480068401C6D490860CE
:103F800009E05C480068401E5A4908602046FFF777
:103F9000B8FFFFF7A2FF02F0B2F858480068C0B1BE
:103FA00055480068844214D16348006808B901206C
:103FB00000E0002028B940F2D24254A158A002F0FB
:103FC000B1FE4FF0805050490860BFF34F8FBFF3F0
:103FD0006F8F70BD2DE9F0414FF000085648006822
:103FE000002876D155480068451C54480560EDB955
:103FF0003E480068006808B9012000E0002028B9A8
:1040000040F6BC2241A146A002F08CFE374807686A
:1040100037480068354908603548076048480068F7
:10402000401C47490860FFF758FF00BF4048006840
:1040300085423CD300BF2D480068006808B90120C4
:1040400000E0002020B14FF0FF30394908602DE03A
:1040500026480068C068C4686668B54202D2344821
:10406000066023E0201DFEF7EFFDA06A18B104F101
:104070001800FEF7E9FD94F82C1001208840214932
:10408000096808431F490860E16A01EB8101114A90
:1040900002EB8100211DFEF7B1FD1749E06A0968B6
:1040A000C96A8842C7D34FF00108C4E700BF12486D
:1040B0000068C06A00EB8000064951F82000012822
:1040C00001D94FF001081F48006808B14FF00108FE
:1040D0003FE039E020010020A0030020B4030020CD
:1040E000C8030020DC030020F0030020540000205F
:1040F0005800002060000020500000206C000020CC
:104100007C0000206800002004ED00E02E2E5C46BC
:1041100072656552544F535C7461736B732E630008
:104120004572726F723A25732C25640D0A000000E7
:10413000800000205C0000208C0000206400002033
:104140007800002074000020FE480068401CFD49F3
:1041500008604046BDE8F08170B500240026FA48AA
:10416000006838B940F6A902AFF26001AFF2500022
:1041700002F0D8FD01F0A0FFF3480068401EF249AC
:1041800008600846006800284FD1F0480068002801
:104190004BD024E0EE48C068C46804F11800FEF774
:1041A00053FD201DFEF750FD94F82C10012088408F
:1041B000E84909680843E7490860E16A01EB8101C1
:1041C000E54A02EB8100211DFEF718FDE349E06A94
:1041D0000968C96A884202D30120E1490860DC48C5
:1041E000006808B9012000E000200028D2D00CB1FE
:1041F000FFF773FED348056865B100BFFFF7EAFE1D
:1042000010B10120D64908606D1E002DF6D10020A6
:10421000CC490860D248006838B101263007D1493E
:104220000860BFF34F8FBFF36F8F01F068FF304618
:1042300070BD2DE9F04105460E46CB480768C748DA
:104240000068001DFEF700FD50B9C448006890F8F2
:104250002C1001208840BF4909688143BD48016096
:10426000681C38B936B1BD480168091DBF48FEF762
:10427000C5FC1AE07C19B94800684460BC4207D20A
:10428000B6480168091DBA480068FEF7C3FC0CE097
:10429000B2480168091DB7480068FEF7BBFCB64884
:1042A0000068844201D2B4480460BDE8F081A648A9
:1042B0000068401CA449086070472DE9F047044697
:1042C0000F464FF000093CB940F2E742AFF2C4118B
:1042D000AFF2B41002F026FD0FB1012000E0002083
:1042E00038B94FF49D62AFF2DC11AFF2CC1002F09E
:1042F00019FD9548006808B9012000E0002038B990
:1043000040F2E942AFF2FC11AFF2EC1002F00AFD0C
:10431000FFF7CDFF944806682068C5192068B042B1
:1043200007D92068A8420BD9B54209D94FF0010935
:1043300006E02068A84201D8B54201D94FF0010932
:104340002560B9F1000F03D0A81B0021FFF771FF12
:10435000FFF702FF8046B8F1000F07D14FF0805001
:1043600080490860BFF34F8FBFF36F8F4846BDE8A9
:10437000F08770B504460025BCB17348006808B9E1
:10438000012000E0002038B940F23F52AFF2842112
:10439000AFF2742002F0C6FCFFF789FF002120462F
:1043A000FFF747FFFFF7D8FE05463DB94FF08050B5
:1043B0006C490860BFF34F8FBFF36F8F70BD2DE95D
:1043C000F04707463E463EB940F26B52AFF2C42179
:1043D000AFF2B42002F0A6FC60480068864201D12A
:1043E00000242DE001F068FE75696248D0F8008075
:1043F0005F48D0F8009001F082FE454501D04D4560
:1044000001D102241CE05948854212D1B06A70B92A
:104410000324002007E006F15801095C012901D1BD
:10442000022402E0401C0128F5DB00BF08E0022462
:1044300006E05248854200D00DB9042400E0012472
:104440002046BDE8F08770B5044601F035FE14B98A
:104450004248006800E020460646F56A01F04FFE3B
:10446000284670BD2DE9F041054601F078FE00BFF9
:104470005021EFF3118081F31188BFF34F8FBFF309
:104480006F8F00BF044615B93448006800E0284625
:104490000746FE6A00BF84F3118800BF3046BDE8BE
:1044A000F0812DE9F04780460D464FF00009202DA0
:1044B00001D2012000E0002038B940F20B62AFF2D7
:1044C000B431AFF2A43002F02DFC202D00D31F2513
:1044D00001F0F2FDB8F1000F02D12048006800E0C1
:1044E00040460446E66CAE4275D0B5420BD91B4837
:1044F000006884420DD019480068C06AA84208D8F4
:104500004FF0010905E015480068844201D14FF0E1
:104510000109E76AE16AE06C884200D1E562E5647E
:10452000A06900F0004010B9C5F12000A06107EBC0
:104530008701094A02EB81016069884220D101208C
:104540001FE00000700000208C00002060000020B0
:10455000C803002068000020200100205000002037
:104560007400002004ED00E064000020F00300204F
:10457000580000205400002080000020DC030020B0
:104580000020E0B1201DFEF75FFB30B90120B840EC
:10459000FC4909688143FB48016094F82C10012014
:1045A0008840F84909680843F6490860E16A01EB68
:1045B0008101F54A02EB8100211DFEF71FFBB9F1D5
:1045C000000F07D04FF08050F0490860BFF34F8FC5
:1045D000BFF36F8F00BF01F092FDBDE8F08710B50B
:1045E000EB48006818B10120EA4908602FE000207C
:1045F000E8490860E3480068B0FA80F0C0F11F04A1
:1046000004EB8400E04951F8200008B1012000E0EB
:10461000002038B940F6F732AFF21051AFF2005037
:1046200002F080FB04EB8401D74A02EB8100416871
:104630004968416000F1080142688A4202D141683C
:10464000496841604168C968D34A116000BF10BD24
:1046500070B5054601F030FD15B9CF48006800E09F
:1046600028460446201DFEF7EFFA78B9E06A00EB11
:104670008000C54951F8200040B994F82C10012061
:104680008840C04909688143BE480160A06A18B1EA
:1046900004F11800FEF7D8FA211DC048FEF7AEFA63
:1046A000002009E004F15801095C012903D100222E
:1046B00004F158010A54401C0128F3DB01F01FFDEE
:1046C000B748006828B101F0F7FCFFF706FC01F0DD
:1046D00016FDB1480068844226D1B1480068B8B1DF
:1046E000AB48006808B9012000E0002038B940F26A
:1046F000F362AFF2E851AFF2D85002F013FB4FF083
:104700008050A2490860BFF34F8FBFF36F8F0BE05B
:10471000A2480068A3490968884203D100209E4945
:10472000086001E0FFF75BFF70BD70B5054600262D
:104730002C463DB940F21D72AFF23061AFF22060FD
:1047400002F0F0FA95496069884201D1012000E049
:10475000002070B19449A06A884201D1012000E094
:10476000002030B9A06A08B9012000E0002000B1A3
:104770000126304670BD70B505462C463DB940F265
:104780004772AFF27861AFF2686002F0CBFA82480C
:10479000006884422BD054B301F08EFC2046FFF712
:1047A000C4FF10B3201DFEF74FFA94F82C1001201F
:1047B000884074490968084372490860E16A01EB5E
:1047C0008101714A02EB8100211DFEF717FA72493F
:1047D000E06A0968C96A884207D34FF080506B4984
:1047E0000860BFF34F8FBFF36F8F01F088FC70BD7F
:1047F0002DE9F0410646002734463EB940F27E726C
:10480000AFF2F861AFF2E86002F08CFA01F0A7FCB9
:1048100000BF5021EFF3118081F31188BFF34F8F58
:10482000BFF36F8F00BF05462046FFF77EFF08B33A
:1048300057480068F8B95849E06A0968C96A884267
:1048400003D30127012053490860201DFEF7FCF91E
:1048500094F82C10012088404A49096808434949C6
:104860000860E16A01EB8101474A02EB8100211DEA
:10487000FEF7C4F904E004F118014B48FEF7BEF955
:1048800000BF85F3118800BF3846BDE8F08110B540
:1048900016E001F011FC4548C068C468201DFEF711
:1048A000D3F940480068401E3E490860404800680F
:1048B000401E3F49086001F022FC2046FFF721FB23
:1048C0003B4800680028E4D110BD00BFFFF7DFFFC0
:1048D0002D4800680128F9D94FF080502B49086015
:1048E000BFF34F8FBFF36F8FF0E71CB53148002146
:1048F0000B468022CDE900102FA13148FFF7BDFA09
:10490000044630480460012C02D101F0ADF90446A0
:10491000012C15D100BF502080F31188BFF34F8FB9
:10492000BFF36F8F00BF4FF0FF30274908600120B1
:104930001B49086000202549086001F034FB0DE0A8
:10494000601C08B1012000E0002038B940F63602B2
:10495000AFF64801AFF6380002F0E4F91C480068F1
:104960001CBD10B500BF502080F31188BFF34F8FDE
:10497000BFF36F8F00BF00200949086001F08BFB77
:1049800010BD0000680000202001002004ED00E0C0
:104990008C0000207400002050000020F003002054
:1049A0006C00002060000020C8030020DC03002011
:1049B0005C0000208400002049444C4500000000B9
:1049C000CB480008900000208000002064000020F8
:1049D00088000020FD490868704770B501F0BFFBF2
:1049E0000025FA480468204670BDF9480068704701
:1049F00070B5044614B9F748006800E02046054643
:104A00003DB940F64E12AFF6FC01AFF6EC0002F0F5
:104A100089F905F1340070BD0246002101E0521C05
:104A2000491C1078A528FAD0890888B270472DE96A
:104A3000F04107460C4690461E4617B9E548006807
:104A400000E038460546256005F134006060E86AFC
:104A50002061286BE061686CA060E86C60610020F8
:104A6000A061052E12D0DB480068854202D10020EB
:104A700020730FE02673032E0CD1FFF718FCA86AF1
:104A800008B102202073FFF767FB03E02846FFF719
:104A900096FC2073B8F1000F04D0286BFFF7BCFF21
:104AA000208401E000202084BDE8F0812DE9F0475A
:104AB00007460C4690460026206848B320464168C9
:104AC0004968416000F1080142688A4202D14168A8
:104AD000496841604168D1F80C9000BF20464168A8
:104AE0004968416000F1080142688A4202D1416888
:104AF000496841604168CD6806EBC60007EB80015C
:104B0000434601222846FFF792FF761C4D45E5D12A
:104B10003046BDE8F0872DE9F04105468846164647
:104B200000242027FFF7C3FBA9480068804539D33C
:104B300000BF7F1E07EB8702A74B03EB820104EB4C
:104B4000C40205EB82000122FFF7B0FF0444002FEE
:104B5000EFD104EBC40105EB810002229F490968F3
:104B6000FFF7A4FF044404EBC40105EB810002221B
:104B70009B490968FFF79AFF044404EBC40105EB65
:104B8000810004229749FFF791FF044404EBC4011C
:104B900005EB810003229449FFF788FF04440EB11E
:104BA00000203060FFF7D8FA2046BDE8F08170B5EC
:104BB00004468E48006808B9012000E0002038B99A
:104BC00040F64922AFF6BC21AFF6AC2002F0AAF8BD
:104BD000FFF76DFB86480068204485490860FFF7B1
:104BE000BBFA0546284670BD70B504460D463CB973
:104BF00040F61142AFF6EC21AFF6DC2002F092F85D
:104C00007448016818312046FEF704F8012128464F
:104C1000FFF70FFB70BD70B504460D4616463CB954
:104C200040F62442AFF61C31AFF60C3002F07AF8B1
:104C30006E48006808B1012000E0002038B940F655
:104C40002842AFF63831AFF6283002F06BF845F065
:104C500000406049096888615E4801681831204653
:104C6000FDF7CCFF01213046FFF7E3FA70BD70B5C8
:104C700005460E4614463DB94FF44462AFF6743112
:104C8000AFF6643002F04EF85248016818312846F9
:104C9000FDF7B4FF0CB14FF0FF3621463046FFF769
:104CA000C8FA70BD70B50646F068C4683CB94FF4E8
:104CB0004762AFF6A831AFF6983002F033F804F14E
:104CC0001800FDF7C1FF49480068A8B9201DFDF78D
:104CD000BBFF94F82C10012088404649096808431E
:104CE00044490860E16A01EB81013B4A02EB810023
:104CF000211DFDF783FF04E004F118013E48FDF794
:104D00007DFF3449E06A0968C96A884204D90125EF
:104D100001203A49086000E00025284670BD70B5C2
:104D200005460E463148006808B1012000E0002029
:104D300038B940F6A842AFF62C41AFF61C4001F05E
:104D4000F1FF46F000402860EC683CB94FF44B623C
:104D5000AFF64841AFF6384001F0E4FF2846FDF7D2
:104D600073FF201DFDF770FF94F82C100120884080
:104D70002049096808431F490860E16A01EB810185
:104D8000154A02EB8100211DFDF738FF1149E06A49
:104D90000968C96A884202D901201849086070BDB3
:104DA00010B504463CB940F6D442AFF6A041AFF688
:104DB000904001F0B7FF01F07FF9114800682060D2
:104DC00002480068606001F09AF910BD640000209C
:104DD000600000205000002020010020540000202E
:104DE00058000020DC030020F00300208C0000208D
:104DF0007000002068000020C8030020740000201C
:104E000078000020FA4909680160FA4909684160A0
:104E1000704770B505460C463DB940F6EB42AFF61B
:104E20001451AFF6045001F07DFF3CB940F6EC425E
:104E3000AFF62851AFF6185001F074FF01F03CF9BD
:104E4000EC48036868681A1A2068401C08B90026F4
:104E500019E0E74928680968884206D068689842DE
:104E600003D80126002020600DE02068904207D979
:104E70002068801A20602846FFF7C4FF002602E061
:104E800000202060012601F03AF9304670BD012073
:104E9000D94908607047014611B10A46906C00E09C
:104EA0000020704708B1024691647047D3490868F2
:104EB0007047D349096809B9012005E0D14909685B
:104EC00009B9022000E00020704770B505462C4665
:104ED0000026002D4DD0C949E06A0968C96A884298
:104EE00040D2A06900F0004028B9C4480068C06AF8
:104EF000C0F12000A061E16A01EB8101C24A02EB2E
:104F000081016069884201D1012000E0002018B3CE
:104F1000201DFDF799FE40B994F82C10012088401F
:104F2000BA4909688143B9480160B4480068C06A59
:104F3000E06294F82C1001208840B44909680843C5
:104F4000B2490860E16A01EB8101AF4A02EB8100DE
:104F5000211DFDF753FE03E0A8480068C06AE06227
:104F6000012606E0A549E06C0968C96A884200D2BA
:104F70000126304670BD70B505462C460026002D32
:104F800048D09E480068844201D1012000E0002002
:104F900038B941F23D02AFF68C61AFF67C6001F0AA
:104FA000C1FE206D38B941F23E02AFF6A061AFF606
:104FB000906001F0B7FE206D401E2065E16CE06A54
:104FC000884227D0206D28BB201DFDF73DFE40B94B
:104FD00094F82C10012088408C49096881438B4843
:104FE0000160E06CE062E06AC0F12000A06194F82A
:104FF0002C100120884085490968084383490860CE
:10500000E16A01EB8101804A02EB8100211DFDF77D
:10501000F5FD0126304670BD2DE9F04706460F46E6
:1050200034464FF00109002E5AD0206D38B941F2B4
:105030008D02AFF62871AFF6187001F073FEE06CC8
:10504000B84201D23D4600E0E56CE06AA84247D094
:10505000206D012844D169480068844201D00120B4
:1050600000E0002038B941F2A802AFF66071AFF657
:10507000507001F057FED4F82C80E562A06900F072
:10508000004010B9C5F12000A06108EB88015E4A1C
:1050900002EB81016069884201D1012000E000201B
:1050A000F0B1201DFDF7D0FD40B994F82C1001207F
:1050B00088405649096881435448016094F82C108F
:1050C0000120884051490968084350490860E16A55
:1050D00001EB81014C4A02EB8100211DFDF78EFDA1
:1050E000BDE8F08770B505460E463146284601F00A
:1050F0005AFA284601F050FA044602E020202855CA
:10510000641C0F2CFAD300202855281970BD2DE9F6
:10511000FC410646002030703D480768014609689A
:1051200001EBC101880001F0D4F80546002D50D0F4
:10513000002239462846FFF7EEFC0746002443E0EC
:1051400004EBC40005EB8000007B062813D2DFE8E7
:1051500000F00306090C0F134FF058080FE04FF052
:1051600052080CE04FF0420809E04FF0530806E007
:105170004FF0440803E000BF4FF0000800BF00BF3D
:1051800004EBC40005EB800041683046FFF7AAFF3E
:10519000064604EBC40005EB8000806804EBC40104
:1051A00005EB8101098CCDE9001004EBC40005EB8F
:1051B0008000424617A10369304601F0C3FD304626
:1051C00001F0EAF90644641CBC42B9D3284601F058
:1051D00017F9BDE8FC810949096888690749096828
:1051E000C96AC1F12001054A126891617047000047
:1051F000780000206400002074000020500000208F
:105200006C0000208C00002020010020680000209D
:105210006000002009256309257509257509257594
:105220000D0A0000FE48006830B1FD49096801F12F
:105230005000096D491C0160F948006870472DE96C
:10524000F04104460F4616460CB9012000E000204C
:1052500030B941F25222F34901F1140001F062FD2C
:1052600000F02AFFEE480068543050F8240080B95E
:105270000121EB4800685830015556B13046FEF721
:10528000D8FF4FF08050E8490860BFF34F8FBFF35D
:105290006F8F00F034FF00F00FFFE14800685430DA
:1052A00050F824506DB137B10021DD48006854300A
:1052B00040F8241005E0681ED9490968543141F8C6
:1052C00024000021D64800685830015500F017FF2F
:1052D0002846BDE8F0812DE9F04704460F46904688
:1052E0001D46DDF820900CB9012000E0002030B907
:1052F00041F29C22CB4901F1140001F013FD00F0B2
:10530000DBFEC74800685830005D02281AD0C44947
:105310000968543101EB84000168B943016001213F
:10532000BF48006858300155B9F1000F0AD048460F
:10533000FEF77FFF4FF08050BB490860BFF34F8FEF
:10534000BFF36F8F00F0DBFE00F0B6FE2DB1B44866
:105350000068543050F824002860B1480068583084
:10536000005D022801D0002609E0AD4909685431EA
:1053700001EB8400016821EA080101600126002197
:10538000A74800685830015500F0B9FE3046BDE826
:10539000F0872DE9F05F07460D4616469846DDF882
:1053A00028A04FF0010B0DB9012000E0002030B91A
:1053B00041F2F4229B4901F1140001F0B3FC37B92A
:1053C00041F2F522974901F1140001F0ABFC3C4693
:1053D00000F072FEBAF1000F05D004F1540050F84D
:1053E0002500CAF8000004F1580010F805900221C9
:1053F0004155B8F1050F29D2DFE808F027030D1752
:105400001C0004F1540050F82500304304F154010D
:1054100041F8250029E004F1540050F82500401C13
:1054200004F1540141F825001FE004F1540040F854
:1054300025601AE0B9F1020F04D004F1540040F8DD
:10544000256001E04FF0000B0FE00EE077480068A8
:1054500008B9012000E0002030B941F22A32714938
:1054600001F1140001F05EFC00BF00BFB9F1010FB3
:105470002FD1201DFDF7E8FB94F82C100120884067
:105480006B49096808436A490860E16A01EB8101D8
:10549000684A02EB8100211DFDF7B0FBA06A08B944
:1054A000012000E0002030B941F239325D4901F1BC
:1054B000140001F037FC5A49E06A0968C96A884259
:1054C00007D94FF0805058490860BFF34F8FBFF3A2
:1054D0006F8F00F014FE5846BDE8F09F2DE9F84F9D
:1054E00080460D4617469946DDF828B00120009009
:1054F000B8F1000F06D141F271324A4901F11400AE
:1055000001F010FC0DB9012000E0002030B941F29B
:105510007232444901F1140001F004FC00F01FFE56
:10552000444600BF5021EFF3118081F31188BFF38F
:105530004F8FBFF36F8F00BF0646BBF1000F05D042
:1055400004F1540050F82500CBF8000004F1580095
:1055500010F805A002214155B9F1050F29D2DFE865
:1055600009F027030D171C0004F1540050F8250022
:10557000384304F1540141F8250029E004F15400B6
:1055800050F82500401C04F1540141F825001FE0AB
:1055900004F1540040F825701AE0BAF1020F04D06B
:1055A00004F1540040F8257001E0002000900FE065
:1055B0000EE01E48006808B9012000E0002030B964
:1055C00041F2B932174901F1140001F0ABFB00BF01
:1055D00000BFBAF1010F47D1A06A08B9012000E06D
:1055E000002030B941F2C4320E4901F1140001F03B
:1055F00099FB1148006820BB201DFDF725FB94F89E
:105600002C10012088400A490968084308490860AD
:10561000E16A01EB8101074A02EB8100211D0DE0E7
:10562000500000200C41000804ED00E06400002060
:1056300068000020200100208C000020FDF7DEFA29
:1056400004E004F118016B48FDF7D8FA6A49E06AF2
:105650000968C96A884207D90B9810B101210B98D3
:10566000016001206549086000BF86F3118800BF12
:105670000098BDE8F88F2DE9F04705460E469046A4
:1056800035B941F2F8325E4901F1140001F04AFBEC
:105690000EB9012000E0002030B941F2F93258493A
:1056A00001F1140001F03EFB00F059FD2C4600BF53
:1056B0005021EFF3118081F31188BFF34F8FBFF3B7
:1056C0006F8F00BF074604F1580010F806900221C2
:1056D0008155001F50F82600401C04F1540141F888
:1056E0002600B9F1010F39D1A06A08B9012000E004
:1056F000002030B941F21F42414901F1140001F08C
:1057000011FB40480068A8B9201DFDF79DFA94F8E8
:105710002C10012088403C49096808433A49086038
:10572000E16A01EB8101394A02EB8100211DFDF79D
:1057300065FA04E004F118012E48FDF75FFA2E49DE
:10574000E06A0968C96A884208D9B8F1000F02D036
:105750000120C8F8000001202849086000BF87F335
:10576000118800BFBDE8F0872DE9F04106460C46E0
:105770000CB9012000E0002030B941F24F4220492D
:1057800001F1140001F0CEFA16B91B48006800E0E0
:105790003046074600F090FC07F15800005D0228F3
:1057A00005D1002107F158000155012500E0002531
:1057B00000F0A5FC2846BDE8F0812DE9F041064641
:1057C0000C46174616B90C48006800E030460546FE
:1057D00000F072FC05F1540050F8248050F82400C9
:1057E000B84305F1540141F8240000F088FC40461C
:1057F000BDE8F081C80300205000002074000020A4
:105800000C4100088C0000206800002020010020CE
:105810002DE9F04104460D4616461F464FF000089C
:1058200065602461B5420CD8F01BA169884202D39F
:105830004FF0010811E0211DF8480068FDF7EAF972
:105840000BE0BE4204D2BD4202D34FF0010804E097
:10585000211DF3480068FDF7DDF94046BDE8F08101
:105860002DE9FF4704460D4616461F46DDF83080F9
:105870004FF000092CB94FF4C172EAA1EFA001F07A
:1058800051FAF248006810B3009501960294062D73
:1058900015DAFFF70EFB022808D1002342466946BD
:1058A000EA480068FDF75EFB814610E000231A46D7
:1058B0006946E6480068FDF755FB814607E000238E
:1058C0003A466946E1480068FDF7A7FD814648462B
:1058D00004B0BDE8F0872DE9F8432FE0D048006818
:1058E000C0680568CE480068C068C468201DFDF720
:1058F000ABF92046216A884794F8280000F004009C
:10590000E0B1A0694619AE4207D966602461211D45
:10591000C3480068FDF77EF910E0002003462A46E0
:10592000014600902046FFF79BFF07462FB940F243
:10593000A932BCA1C1A001F0F5F900BFB8480068C8
:10594000006808B9012000E000200028C6D0B44853
:10595000D0F80080B1480068B1490860AF48C0F88D
:105960000080BDE8F88370B50446FFF733F80546BC
:10597000B7480068854204D2FFF7ADFF01202060E0
:1059800001E000202060B2480560284670BDF0B5F7
:1059900087B090E0039800280CDA04AE2EB940F2EC
:1059A000FA22A0A1A5A001F0BDF9D6E90020B168B6
:1059B000904700BF039800287DDB059C606908B90B
:1059C000012000E0002010B9201DFDF73DF902A8DC
:1059D000FFF7C9FF054603980A286AD2DFE800F0FE
:1059E000090507343C590608353D00BF00BF00BF1C
:1059F00000BF94F8280040F0010084F828000498C3
:105A0000A269811803462A462046FFF701FFD0B15C
:105A10002046216A884794F8280000F0040090B1DD
:105A2000002000900498A1694218002319462046DE
:105A3000FFF716FF07462FB940F2363279A17FA053
:105A400001F070F900BF35E000BF94F8280020F0A5
:105A5000010084F828002DE000BF94F8280040F0F1
:105A6000010084F828000498A061A06908B1012011
:105A700000E0002028B940F24F326AA16FA001F087
:105A800051F9A06941192B462A462046FFF7C0FE6E
:105A900010E094F8280000F0020018B9204600F049
:105AA000AFFC05E094F8280020F0010084F82800FD
:105AB00000E000BF00BF002203A964480068FDF7B2
:105AC000D3FD00287FF466AF07B0F0BDF8B50546FA
:105AD0000F4653480068C068C468201DFDF7B4F83D
